:020000040000FA
:040000000DEF00F010
:0400080056EF94F02B
:06001800FF0043EF96F02B
:10FED00000524553455454494E47202020202020AD
:10FEE0002000437572736F72204F4E202020202017
:10FEF000202000437572736F72204F4646202020E9
:10FF0000202020004B65792042656570204F4E20EF
:10FF100020202020004E45572050415353574F5228
:10FF200044202020200054494D4552204348414E52
:10FF3000474520202020004B6579204265657020D0
:10FF40004F464620202020004E4F54204156414924
:10FF50004C41424C452020200054696D657220427E
:10FF6000656570204F4E2020200054696D65722019
:10FF700042656570204F464620200050415353573C
:10FF80004F5244204348414E474520002020202026
:10FF900020202020202020202020202000504153FD
:10FFA00053574F52443A2020202020202000202068
:10FFB00020204558504C4F444544202020200054D8
:10FFC000494D4552204348414E47450053544F50F8
:10FFD00045442020005354414E42592020004445BE
:10FFE000434C494E45440041434345505445440029
:0FFFF00041524D45442000444F4E452020000013
:020000040001F9
:10000000D9EC99F0DFEC97F051505218D8A4FCD7F6
:10001000BCEC95F0E0EC91F06000C4F03BF06000C7
:10002000C8F03CF06000ECF04FF06000F0F050F0F1
:100030004350451803E144504618D8A489EF85F091
:100040004F5000018F6F906B3D508F1904E13E506F
:100050009019D8B439D150508F6F906B3D508F1993
:1000600003E13E509019D8A42FD14D504E10D8A482
:1000700008D04150191805E142501A18D8B49EEC26
:1000800099F0230E4F18D8B426D02A0E4F18D8B4A2
:1000900022D04EBE06D04E501EE1070E4D5CD8B0A9
:1000A0001AD0990E4D24D96E000E4E20DA6E6000E3
:1000B0003FF1DFFF4D4A4E2A000E306E020E2F6ECA
:1000C000090E4D24316E000E4E20326EE1EC98F098
:1000D0004F505BEC99F0230E4F18D8B40FD02A0E76
:1000E0004F18D8A491D7505000018F6F906B3D509E
:1000F0008F198AE13E509019D8A486D7990E346E94
:10010000000E356E7E0E366E000E376E79EC98F06E
:100110006000D0F04BF06000D4F04CF01A0E0001FB
:100120008F6FF80EE82EFED78F2FFCD700F0C9ECAA
:1001300098F00F504B1803E110504C18D8A4ABD0D6
:1001400014EC95F0000E306E020E2F6E000E326E23
:10015000010E316EE1EC98F00D040E10D8A485D09C
:10016000530E4CEC9AF0350E5BEC99F0000E306EAD
:10017000020E2F6E000E326E010E316EE1EC98F021
:100180000B0E0001906F260E8F6F5D0EE82EFED7CE
:100190008F2FFCD7902FFAD700D0340E5BEC99F05C
:1001A000000E306E020E2F6E000E326E010E316E9A
:1001B000E1EC98F00B0E0001906F260E8F6F5D0E34
:1001C000E82EFED78F2FFCD7902FFAD700D0330E12
:1001D0005BEC99F0000E306E020E2F6E000E326E48
:1001E000010E316EE1EC98F00B0E0001906F260EBF
:1001F0008F6F5D0EE82EFED78F2FFCD7902FFAD78A
:1002000000D0320E5BEC99F0000E306E020E2F6EB5
:10021000000E326E010E316EE1EC98F00B0E000113
:10022000906F260E8F6F5D0EE82EFED78F2FFCD7B6
:10023000902FFAD700D0310E5BEC99F0000E306EA3
:10024000020E2F6E000E326E010E316EE1EC98F050
:100250000B0E0001906F260E8F6F5D0EE82EFED7FD
:100260008F2FFCD7902FFAD700D0000E306E010EE2
:100270002F6E000E326E010E316EE1EC98F0F00E32
:100280002F6EFF0E306ED8EC96F05CEC98F03FECE1
:100290009AF08CEF87F03F504B1803E140504C1818
:1002A000D8A4B2D6B8EC94F0030E0001906F8A0E79
:1002B0008F6F550EE82EFED78F2FFCD7902FFAD7D1
:1002C00000D0DFEC97F0A0D6505000018F6F906BFC
:1002D0003D508F1904E13E509019D8B495D6230EA5
:1002E0004F18D8A411D2230E5018D8A40DD20D0443
:1002F0000E10D8B457D1000E4E6E000E4D6E600039
:100300003CF047F0600040F048F0000E306E010E07
:100310002F6E000E326E010E316EE1EC98F07B0E06
:100320002F6EFF0E306ED8EC96F0990E346E000EE4
:10033000356E21EC98F095EC98F02DD1E0EC91F031
:100340006000C4F03BF06000C8F03CF06000ECF0EE
:100350004FF06000F0F050F0230E4F18D8B426D0C4
:100360002A0E4F18D8B422D04EBE06D04E501EE1F1
:10037000070E4D5CD8B01AD0990E4D24D96E000EE0
:100380004E20DA6E60003FF1DFFF4D4A4E2A000E2C
:10039000306E020E2F6E090E4D24316E000E4E206F
:1003A000326EE1EC98F04F505BEC99F0230E4F1851
:1003B000D8B40FD02A0E4F18D8A4EDD05050000159
:1003C0008F6F906B3D508F1903E13E509019D8A468
:1003D000E2D01A0E00018F6FF80EE82EFED78F2F95
:1003E000FCD700F0990E346E000E356E7E0E366E20
:1003F000000E376E79EC98F06000D0F04BF06000A2
:10040000D4F04CF0C9EC98F00F504B1803E11050A9
:100410004C18D8A4A9D04E0E4CEC9AF0000E4E6E9B
:10042000000E4D6E14EC95F0000E306E010E2F6E26
:10043000000E326E010E316EE1EC98F0150E2F6E4B
:10044000FF0E306ED8EC96F095EC98F085D0E0EC8D
:1004500091F06000C4F03BF06000C8F03CF0600038
:10046000ECF04FF06000F0F050F0230E4F18D8B4CD
:100470002CD02A0E4F18D8B428D04EBE06D04E50DD
:1004800024E1070E4D5CD8B020D04E0E4CEC9AF013
:100490004F504CEC9AF0990E4D24D96E000E4E2020
:1004A000DA6E60003FF1DFFF4D4A4E2A000E306EDB
:1004B000020E2F6E090E4D24316E000E4E20326E4C
:1004C000E1EC98F04F505BEC99F0230E4F18D8B444
:1004D0000FD02A0E4F18D8A43FD0505000018F6F74
:1004E000906B3D508F1938E13E509019D8A434D00C
:1004F0004E0E4CEC9AF02A0E4CEC9AF0000E0001D5
:10050000926F000E916F92BF03D092511AE115D0F5
:10051000990E9125D96E000E9221DA6E7E0E9125EC
:10052000E16E000E9221E26E6F007FFFE7FF914BBC
:10053000922B92BFEDD7925104E1070E915DD8A0A6
:10054000E7D76000FCF047F0600000F148F0C9EC2C
:1005500098F0DFEC97F01FD00F5047181CE11050B7
:100560004818D8A418D073D73F504B1814E1405006
:100570004C18D8A410D06000FCF047F0600000F1E7
:1005800048F0B8EC94F0990E346E000E356E21EC04
:1005900098F0DFEC97F00F50471804E1105048181E
:1005A000D8B4CCD60D040E10D8A42ED560003CF0E3
:1005B00047F0600040F048F04E0E4CEC9AF0000E10
:1005C0004E6E000E4D6E000E306E010E2F6E000E40
:1005D000326E010E316EE1EC98F0150E2F6EFF0EAB
:1005E000306ED8EC96F095EC98F085D0E0EC91F078
:1005F0006000C4F03BF06000C8F03CF06000ECF03C
:100600004FF06000F0F050F0230E4F18D8B42CD00B
:100610002A0E4F18D8B428D04EBE06D04E5024E132
:10062000070E4D5CD8B020D04E0E4CEC9AF04F50D7
:100630004CEC9AF0990E4D24D96E000E4E20DA6ED5
:1006400060003FF1DFFF4D4A4E2A000E306E020E71
:100650002F6E090E4D24316E000E4E20326EE1ECED
:1006600098F04F505BEC99F0230E4F18D8B40FD090
:100670002A0E4F18D8A43FD0505000018F6F906BB6
:100680003D508F1938E13E509019D8A434D04E0E09
:100690004CEC9AF02A0E4CEC9AF0000E0001946F8C
:1006A000000E936F94BF03D094511AE115D0990EA8
:1006B0009325D96E000E9421DA6E7E0E9325E16E9D
:1006C000000E9421E26E6F007FFFE7FF934B942BA7
:1006D00094BFEDD7945104E1070E935DD8A0E7D7FE
:1006E0006000FCF047F0600000F148F0C9EC98F0C1
:1006F000DFEC97F089D40F50471805E110504818E7
:10070000D8A482D473D780D42A0E4F18D8A414D179
:100710002A0E5018D8A410D160003CF049F06000B7
:1007200040F04AF0000E306E020E2F6E000E326E58
:10073000010E316EE1EC98F0BF0E2F6EFF0E306EA1
:10074000D8EC96F0000E0001966F000E956F4FECFE
:1007500097F0000E306E010E2F6E000E326E090EF5
:10076000316EE1EC98F056EC9AF0D1D0E0EC91F0DB
:100770006000C4F03BF06000C8F03CF06000ECF0BA
:100780004FF06000F0F050F0505000018F6F906B10
:100790003D508F1938E13E509019D8A434D0230E23
:1007A0004F18D8A430D095519611D8A403D05EEC40
:1007B0009AF025D095059611D8A408D05EEC9AF051
:1007C0005EEC9AF00001954B962B1AD0030E95190A
:1007D0009611D8A403D05EEC9AF011D0040E9519AE
:1007E0009611D8A405D05EEC9AF05EEC9AF0EAD7A8
:1007F000060E95199611D8A48AD05EEC9AF00001E5
:10080000954B962B84D050508F6F906B3D508F1925
:1008100040E13E509019D8A43CD02A0E4F18D8A4DD
:1008200038D095519611D8B472D095059611D8A4A8
:1008300004D062EC9AF0000128D0030E95199611AD
:10084000D8A409D062EC9AF062EC9AF00001950706
:10085000D8A096071AD0040E95199611D8A403D0E3
:1008600062EC9AF0E8D7060E95199611D8A405D037
:1008700062EC9AF062EC9AF0E9D7070E951996119E
:10088000D8A445D062EC9AF0D6D79507D8A09607A1
:100890003ED050508F6F906B3D508F192AE13E50E3
:1008A0009019D8A426D06C0E9525D96E000E9621ED
:1008B000DA6E60003FF1DFFF4F505BEC99F0000112
:1008C000954B962B020E95199611D8B405D0050EAE
:1008D00095199611D8A405D05EEC9AF00001954BBD
:1008E000962B080E95199611D8A411D062EC9AF0A7
:1008F000A2D72A0E5018D8A40AD02A0E4F18D8A46E
:1009000006D06000FCF049F0600000F14AF00F50A2
:10091000491804E110504A18D8B428D7ACEC8AF032
:1009200028EC93F02AEC97F095EC98F0000E4E6EC0
:10093000000E4D6E04EF80F0310E4F18D8A446D053
:10094000310E5018D8A442D0000174517511D8A4AA
:1009500002D0010E01D0000E746F756B19501A1081
:10096000D8A402D0010E01D0000E196E1A6A000E32
:10097000306E020E2F6E000E326E010E316EE1EC03
:1009800098F0115019180BE112501A18D8A407D07A
:10099000040E2F6EFF0E306ED8EC96F006D0370E98
:1009A0002F6EFF0E306ED8EC96F0100E0001906F97
:1009B000390E8F6F0D0EE82EFED78F2FFCD7902F9C
:1009C000FAD700D0DFEC97F004EF80F0320E4F182A
:1009D000D8A454D0320E5018D8A450D04150131877
:1009E0001DE142501418D8A419D0600044F013F04F
:1009F000600048F014F056EC9AF0000E306E020ED3
:100A00002F6E000E326E010E316EE1EC98F0E20EA8
:100A10002F6EFE0E306ED8EC96F01FD011501318CA
:100A20001CE112501418D8A418D0600004F113F07F
:100A3000600008F114F05AEC9AF0000E306E020ECD
:100A40002F6E000E326E010E316EE1EC98F0F30E57
:100A50002F6EFE0E306ED8EC96F0100E0001906FE7
:100A6000390E8F6F0D0EE82EFED78F2FFCD7902FEB
:100A7000FAD700D0DFEC97F004EF80F0330E4F1878
:100A8000D8A404EF80F0330E5018D8A404EF80F0FF
:100A900017501810D8A402D0010E01D0000E176E06
:100AA000186A15501610D8A402D0010E01D0000EFD
:100AB000156E166A000E306E020E2F6E000E326E2C
:100AC000010E316EE1EC98F0115017180BE1125045
:100AD0001818D8A407D0590E2F6EFF0E306ED8EC20
:100AE00096F006D06A0E2F6EFF0E306ED8EC96F0A0
:100AF000100E0001906F390E8F6F0D0EE82EFED78D
:100B00008F2FFCD7902FFAD700D0DFEC97F004EFAF
:100B100080F01F50451803E120504618D8A46BD12F
:100B2000600004F119F0600008F11AF04F50000164
:100B30008F6F906B3D508F1904E13E509019D8B4DF
:100B400095D050508F6F906B3D508F1903E13E5000
:100B50009019D8A48BD04D504E10D8A408D0415035
:100B6000191805E142501A18D8B49EEC99F0230EDA
:100B70004F18D8B42CD02A0E4F18D8B428D04EBE57
:100B800006D04E5024E1070E4D5CD8B020D0550E53
:100B90004CEC9AF04F504CEC9AF0990E4D24D96ED3
:100BA000000E4E20DA6E60003FF1DFFF4D4A4E2A04
:100BB000000E306E020E2F6E090E4D24316E000EA7
:100BC0004E20326EE1EC98F04F505BEC99F0230E22
:100BD0004F18D8B411D02A0E4F18D8A404EF80F0C3
:100BE000505000018F6F906B3D508F1903E13E50C4
:100BF0009019D8A404EF80F0550E4CEC9AF02A0E10
:100C00004CEC9AF0990E346E000E356E7E0E366EF8
:100C1000000E376E79EC98F06000D0F04BF0600079
:100C2000D4F04CF0C9EC98F00F504B181BE1105069
:100C30004C18D8A417D066EC9AF0440E4CEC9AF0FD
:100C4000760E346E000E356E7CEC96F03FEC98F02C
:100C5000600074F045F0600078F046F000EC98F029
:100C600004EF80F05CEC98F004EF80F0505000014D
:100C70008F6F906B3D508F1905E13E509019D8B49D
:100C800004EF80F00D040E10D8A418D0410E4F18B8
:100C9000D8A414D0410E5018D8A410D060000CF184
:100CA00045F0600010F146F028EC93F0ACEC8AF0CF
:100CB000C9EC98F0DFEC97F00DEF00F0310E4F1813
:100CC000D8A425D0310E5018D8A421D0000E306EF3
:100CD000020E2F6E000E326E010E316EE1EC98F0B6
:100CE000480E2F6EFF0E306ED8EC96F0100E0001FD
:100CF000906F390E8F6F0D0EE82EFED78F2FFCD719
:100D0000902FFAD700D05CEC98F004EF80F0320E10
:100D10004F18D8A425D0320E5018D8A421D0000ED8
:100D2000306E020E2F6E000E326E010E316EE1EC4F
:100D300098F0480E2F6EFF0E306ED8EC96F0100E25
:100D40000001906F390E8F6F0D0EE82EFED78F2F9A
:100D5000FCD7902FFAD700D05CEC98F004EF80F02D
:100D6000330E4F18D8A404EF80F0330E5018D8A4D7
:100D700004EF80F017501810D8A402D0010E01D053
:100D8000000E176E186A15501610D8A402D0010E66
:100D900001D0000E156E166A000E306E020E2F6E18
:100DA000000E326E010E316EE1EC98F01150171802
:100DB0000BE112501818D8A407D0590E2F6EFF0E51
:100DC000306ED8EC96F006D06A0E2F6EFF0E306EA5
:100DD000D8EC96F0100E0001906F390E8F6F0D0E4B
:100DE000E82EFED78F2FFCD7902FFAD700D05CECDF
:100DF00098F004EF80F01D50451803E11E5046188E
:100E0000D8A42AD34F5000018F6F906B3D508F199B
:100E100004E13E509019D8B495D050508F6F906B2C
:100E20003D508F1903E13E509019D8A48BD04D50FE
:100E30004E10D8A408D04150191805E142501A1894
:100E4000D8B49EEC99F0230E4F18D8B426D02A0EB1
:100E50004F18D8B422D04EBE06D04E501EE1070E19
:100E60004D5CD8B01AD0990E4D24D96E000E4E208C
:100E7000DA6E60003FF1DFFF4D4A4E2A000E306E01
:100E8000020E2F6E090E4D24316E000E4E20326E72
:100E9000E1EC98F04F505BEC99F0230E4F18D8B46A
:100EA00004EF80F02A0E4F18D8B404EF80F04EBE45
:100EB00007D04E5003E1070E4D5CD8B004EF80F030
:100EC000030E0001906F8A0E8F6F550EE82EFED72D
:100ED0008F2FFCD7902FFAD700D0990E346E000ECA
:100EE000356E7E0E366E000E376E79EC98F060002F
:100EF000D0F04BF06000D4F04CF0C9EC98F00F50FB
:100F00004B1812E110504C18D8A40ED014EC95F0E8
:100F10005CEC98F03FEC9AF060007CF045F06000EB
:100F200080F046F004EF80F03F504B1803E1405052
:100F30004C18D8A404EF80F0B8EC94F000EC98F0D2
:100F400004EF80F0505000018F6F906B3D508F196F
:100F500005E13E509019D8B404EF80F00D040E1056
:100F6000D8A418D0410E4F18D8A414D0410E501850
:100F7000D8A410D060000CF145F0600010F146F0EC
:100F800028EC93F0ACEC8AF0C9EC98F0DFEC97F029
:100F90000DEF00F02A0E4F18D8A40ED12A0E5018CB
:100FA000D8A40AD160003CF049F0600040F04AF05B
:100FB000000E306E020E2F6E000E326E010E316E7C
:100FC000E1EC98F0260E2F6EFF0E306ED8EC96F006
:100FD000000E0001986F000E976F4FEC97F0000E17
:100FE000306E010E2F6E000E326E090E316EE1EC86
:100FF00098F056EC9AF0D1D0E0EC91F06000C4F09B
:101000003BF06000C8F03CF06000ECF04FF0600096
:10101000F0F050F0505000018F6F906B3D508F19E1
:1010200038E13E509019D8A434D0230E4F18D8A4DC
:1010300030D097519811D8A403D05EEC9AF025D007
:1010400097059811D8A408D05EEC9AF05EEC9AF05F
:101050000001974B982B1AD0030E97199811D8A41A
:1010600003D05EEC9AF011D0040E97199811D8A411
:1010700005D05EEC9AF05EEC9AF0EAD7060E97196E
:101080009811D8A48AD05EEC9AF00001974B982B67
:1010900084D050508F6F906B3D508F1940E13E507F
:1010A0009019D8A43CD02A0E4F18D8A438D0975104
:1010B0009811D8B472D097059811D8A404D062ECD6
:1010C0009AF0000128D0030E97199811D8A409D0DE
:1010D00062EC9AF062EC9AF000019707D8A09807AA
:1010E0001AD0040E97199811D8A403D062EC9AF084
:1010F000E8D7060E97199811D8A405D062EC9AF09B
:1011000062EC9AF0E9D7070E97199811D8A445D048
:1011100062EC9AF0D6D79707D8A098073ED05050E7
:101120008F6F906B3D508F192AE13E509019D8A4D3
:1011300026D06C0E9725D96E000E9821DA6E6000CD
:101140003FF1DFFF4F505BEC99F00001974B982B7C
:10115000020E97199811D8B405D0050E9719981159
:10116000D8A405D05EEC9AF00001974B982B080E9E
:1011700097199811D8A411D062EC9AF0A2D72A0E30
:101180005018D8A40AD02A0E4F18D8A406D0600050
:10119000FCF049F0600000F14AF00F50491804E1FA
:1011A00010504A18D8B428D7ACEC8AF02AEC97F043
:1011B00095EC98F004EF80F0300E4F18D8A469D069
:1011C000300E5018D8A465D060000CF145F06000D6
:1011D00010F146F0000E306E020E2F6E000E326ED1
:1011E000010E316EE1EC98F0D10E2F6EFE0E306ED6
:1011F000D8EC96F0000E306E020E2F6E000E326E9E
:101200000A0E316EE1EC98F0090E0001906F1E0E8F
:101210008F6FE40EE82EFED78F2FFCD7902FFAD7D2
:1012200000F02E0E5BEC99F0090E0001906F1E0E7F
:101230008F6FE40EE82EFED78F2FFCD7902FFAD7B2
:1012400000F02E0E5BEC99F0090E0001906F1E0E5F
:101250008F6FE40EE82EFED78F2FFCD7902FFAD792
:1012600000F02E0E5BEC99F0090E0001906F1E0E3F
:101270008F6FE40EE82EFED78F2FFCD7902FFAD772
:1012800000F028EC93F0ACEC8AF0DFEC97F004EF80
:1012900080F0310E4F18D8A43CD0310E5018D8A48D
:1012A00038D019501A10D8A402D0010E01D0000E67
:1012B000196E1A6A000E306E020E2F6E000E326E1C
:1012C000010E316EE1EC98F0115019180BE112503B
:1012D0001A18D8A407D0040E2F6EFF0E306ED8EC6B
:1012E00096F006D0370E2F6EFF0E306ED8EC96F0CB
:1012F000100E0001906F390E8F6F0D0EE82EFED785
:101300008F2FFCD7902FFAD700D000EC98F004EF85
:1013100080F0320E4F18D8A454D0320E5018D8A4F2
:1013200050D0415013181DE142501418D8A419D0C0
:10133000600044F013F0600048F014F056EC9AF0AE
:10134000000E306E020E2F6E000E326E010E316EE8
:10135000E1EC98F0E20E2F6EFE0E306ED8EC96F0B7
:101360001FD0115013181CE112501418D8A418D013
:10137000600004F113F0600008F114F05AEC9AF0E8
:10138000000E306E020E2F6E000E326E010E316EA8
:10139000E1EC98F0F30E2F6EFE0E306ED8EC96F066
:1013A000100E0001906F390E8F6F0D0EE82EFED7D4
:1013B0008F2FFCD7902FFAD700D000EC98F004EFD5
:1013C00080F0330E4F18D8A404EF80F0330E50187D
:1013D000D8A404EF80F015501610D8A402D0010E46
:1013E00001D0000E156E166A17501810D8A402D03E
:1013F000010E01D0000E176E186A000E306E020E3C
:101400002F6E000E326E010E316EE1EC98F011502D
:1014100017180BE112501818D8A407D0590E2F6EC8
:10142000FF0E306ED8EC96F006D06A0E2F6EFF0ECF
:10143000306ED8EC96F0100E0001906F390E8F6F61
:101440000D0EE82EFED78F2FFCD7902FFAD700D0A5
:1014500000EC98F004EF80F01B50451803E11C509D
:101460004618D8A404EF80F0450E4CEC9AF0BCEC82
:1014700095F05050D8B404EF80F0300E4F18D8A437
:1014800004EF80F0300E5018D8A404EF80F0600014
:101490000CF145F0600010F146F0000E306E020EC7
:1014A0002F6E000E326E010E316EE1EC98F0D10E0F
:1014B0002F6EFE0E306ED8EC96F0000E306E020EDF
:1014C0002F6E000E326E0A0E316EE1EC98F0090EAE
:1014D0000001906F1E0E8F6FE40EE82EFED78F2F47
:1014E000FCD7902FFAD700F02E0E5BEC99F0090E86
:1014F0000001906F1E0E8F6FE40EE82EFED78F2F27
:10150000FCD7902FFAD700F02E0E5BEC99F0090E65
:101510000001906F1E0E8F6FE40EE82EFED78F2F06
:10152000FCD7902FFAD700F02E0E5BEC99F0090E45
:101530000001906F1E0E8F6FE40EE82EFED78F2FE6
:10154000FCD7902FFAD700F028EC93F0ACEC8AF09F
:10155000DFEC97F004EF80F0000E336E000E326E79
:1015600033BE08D0335005E1080E325CD8B012000B
:1015700001D0120032503310D8B404D032043310EA
:10158000D8A4E6D06C0E3224D96E000E3320DA6E69
:10159000300EDE18D8A40DD0D8903234D96E333442
:1015A000DA6E600ED926000EDA22000EDE6E000E14
:1015B000DD6E6C0E3224D96E000E3320DA6E310EE1
:1015C000DE18D8A40DD0D8903234D96E3334DA6E08
:1015D000600ED926000EDA22010EDE6E000EDD6EE0
:1015E0006C0E3224D96E000E3320DA6E320EDE1805
:1015F000D8A40DD0D8903234D96E3334DA6E600E60
:10160000D926000EDA22020EDE6E000EDD6E6C0EA2
:101610003224D96E000E3320DA6E330EDE18D8A4D1
:101620000DD0D8903234D96E3334DA6E600ED926AC
:10163000000EDA22030EDE6E000EDD6E6C0E32241A
:10164000D96E000E3320DA6E340EDE18D8A40DD019
:10165000D8903234D96E3334DA6E600ED926000E4B
:10166000DA22040EDE6E000EDD6E6C0E3224D96EB0
:10167000000E3320DA6E350EDE18D8A40DD0D890C7
:101680003234D96E3334DA6E600ED926000EDA2287
:10169000050EDE6E000EDD6E6C0E3224D96E000E6D
:1016A0003320DA6E360EDE18D8A40DD0D89032343E
:1016B000D96E3334DA6E600ED926000EDA22060EA9
:1016C000DE6E000EDD6E6C0E3224D96E000E3320FD
:1016D000DA6E370EDE18D8A40DD0D8903234D96E19
:1016E0003334DA6E600ED926000EDA22070EDE6E73
:1016F000000EDD6E6C0E3224D96E000E3320DA6ED1
:10170000380EDE18D8A40DD0D8903234D96E3334C8
:10171000DA6E600ED926000EDA22080EDE6E000E9A
:10172000DD6E6C0E3224D96E000E3320DA6E390E67
:10173000DE18D8A40DD0D8903234D96E3334DA6E96
:10174000600ED926000EDA22090EDE6E000EDD6E66
:10175000030E32183310D8B405D0040E32183310EB
:10176000D8A472D16C0E3224D96E000E3320DA6EFA
:10177000300EDE18D8A41BD0FE0E2E6EFF0E2F6E7C
:101780006000C8F030F06000CCF031F0D890303616
:1017900031362E5030262F503122600E3024D96E33
:1017A000000E3120DA6E000EDE6E000EDD6E6C0E65
:1017B0003224D96E000E3320DA6E310EDE18D8A432
:1017C0001BD0FE0E2E6EFF0E2F6E6000C8F030F0A4
:1017D0006000CCF031F0D890303631362E503026C3
:1017E0002F503122600E3024D96E000E3120DA6E77
:1017F000010EDE6E000EDD6E6C0E3224D96E000E10
:101800003320DA6E320EDE18D8A41BD0FE0E2E6EF8
:10181000FF0E2F6E6000C8F030F06000CCF031F0A9
:10182000D890303631362E5030262F503122600E6F
:101830003024D96E000E3120DA6E020EDE6E000EFC
:10184000DD6E6C0E3224D96E000E3320DA6E330E4C
:10185000DE18D8A41BD0FE0E2E6EFF0E2F6E600079
:10186000C8F030F06000CCF031F0D890303631362E
:101870002E5030262F503122600E3024D96E000EAB
:101880003120DA6E030EDE6E000EDD6E6C0E322439
:10189000D96E000E3320DA6E340EDE18D8A41BD0B9
:1018A000FE0E2E6EFF0E2F6E6000C8F030F060004E
:1018B000CCF031F0D890303631362E5030262F50C3
:1018C0003122600E3024D96E000E3120DA6E040E03
:1018D000DE6E000EDD6E6C0E3224D96E000E3320EB
:1018E000DA6E350EDE18D8A41BD0FE0E2E6EFF0E5B
:1018F0002F6E6000C8F030F06000CCF031F0D8906E
:10190000303631362E5030262F503122600E3024A2
:10191000D96E000E3120DA6E050EDE6E000EDD6E21
:101920006C0E3224D96E000E3320DA6E360EDE18BD
:10193000D8A41BD0FE0E2E6EFF0E2F6E6000C8F0D6
:1019400030F06000CCF031F0D890303631362E5087
:1019500030262F503122600E3024D96E000E3120F7
:10196000DA6E060EDE6E000EDD6E6C0E3224D96E5F
:10197000000E3320DA6E370EDE18D8A41BD0FE0E10
:101980002E6EFF0E2F6E6000C8F030F06000CCF0BD
:1019900031F0D890303631362E5030262F5031224B
:1019A000600E3024D96E000E3120DA6E070EDE6E26
:1019B000000EDD6E6C0E3224D96E000E3320DA6E0E
:1019C000380EDE18D8A41BD0FE0E2E6EFF0E2F6E22
:1019D0006000C8F030F06000CCF031F0D8903036C4
:1019E00031362E5030262F503122600E3024D96EE1
:1019F000000E3120DA6E080EDE6E000EDD6E6C0E0B
:101A00003224D96E000E3320DA6E390EDE18D8A4D7
:101A10001BD0FE0E2E6EFF0E2F6E6000C8F030F051
:101A20006000CCF031F0D890303631362E50302670
:101A30002F503122600E3024D96E000E3120DA6E24
:101A4000090EDE6E000EDD6E060E32183310D8B4AD
:101A500005D0070E32183310D8A472D16C0E322480
:101A6000D96E000E3320DA6E300EDE18D8A41BD0EB
:101A7000FC0E2E6EFF0E2F6E6000C8F030F060007E
:101A8000CCF031F0D890303631362E5030262F50F1
:101A90003122600E3024D96E000E3120DA6E000E35
:101AA000DE6E000EDD6E6C0E3224D96E000E332019
:101AB000DA6E310EDE18D8A41BD0FC0E2E6EFF0E8F
:101AC0002F6E6000C8F030F06000CCF031F0D8909C
:101AD000303631362E5030262F503122600E3024D1
:101AE000D96E000E3120DA6E010EDE6E000EDD6E54
:101AF0006C0E3224D96E000E3320DA6E320EDE18F0
:101B0000D8A41BD0FC0E2E6EFF0E2F6E6000C8F006
:101B100030F06000CCF031F0D890303631362E50B5
:101B200030262F503122600E3024D96E000E312025
:101B3000DA6E020EDE6E000EDD6E6C0E3224D96E91
:101B4000000E3320DA6E330EDE18D8A41BD0FC0E44
:101B50002E6EFF0E2F6E6000C8F030F06000CCF0EB
:101B600031F0D890303631362E5030262F50312279
:101B7000600E3024D96E000E3120DA6E030EDE6E58
:101B8000000EDD6E6C0E3224D96E000E3320DA6E3C
:101B9000340EDE18D8A41BD0FC0E2E6EFF0E2F6E56
:101BA0006000C8F030F06000CCF031F0D8903036F2
:101BB00031362E5030262F503122600E3024D96E0F
:101BC000000E3120DA6E040EDE6E000EDD6E6C0E3D
:101BD0003224D96E000E3320DA6E350EDE18D8A40A
:101BE0001BD0FC0E2E6EFF0E2F6E6000C8F030F082
:101BF0006000CCF031F0D890303631362E5030269F
:101C00002F503122600E3024D96E000E3120DA6E52
:101C1000050EDE6E000EDD6E6C0E3224D96E000EE7
:101C20003320DA6E360EDE18D8A41BD0FC0E2E6ED2
:101C3000FF0E2F6E6000C8F030F06000CCF031F085
:101C4000D890303631362E5030262F503122600E4B
:101C50003024D96E000E3120DA6E060EDE6E000ED4
:101C6000DD6E6C0E3224D96E000E3320DA6E370E24
:101C7000DE18D8A41BD0FC0E2E6EFF0E2F6E600057
:101C8000C8F030F06000CCF031F0D890303631360A
:101C90002E5030262F503122600E3024D96E000E87
:101CA0003120DA6E070EDE6E000EDD6E6C0E322411
:101CB000D96E000E3320DA6E380EDE18D8A41BD091
:101CC000FC0E2E6EFF0E2F6E6000C8F030F060002C
:101CD000CCF031F0D890303631362E5030262F509F
:101CE0003122600E3024D96E000E3120DA6E080EDB
:101CF000DE6E000EDD6E6C0E3224D96E000E3320C7
:101D0000DA6E390EDE18D8A41BD0FC0E2E6EFF0E34
:101D10002F6E6000C8F030F06000CCF031F0D89049
:101D2000303631362E5030262F503122600E30247E
:101D3000D96E000E3120DA6E090EDE6E000EDD6EF9
:101D4000324A332A33BE16D4335001E10DD4120087
:101D5000000E256E000E246E25BE08D0255005E12C
:101D6000060E245CD8B0120001D0120024502510B9
:101D7000D8B404D024042510D8A4DAD0D8902434C0
:101D8000D96E2534DA6E010ED926000EDA22DE5025
:101D9000DE10D8A408D0760E2424D96E000E25209B
:101DA000DA6E300EDF6ED8902434D96E2534DA6EB8
:101DB000010ED926000EDA22DE04DE10D8A408D0E7
:101DC000760E2424D96E000E2520DA6E310EDF6ED9
:101DD000D8902434D96E2534DA6E010ED926000E3F
:101DE000DA22020EDE18DE10D8A408D0760E2424E3
:101DF000D96E000E2520DA6E320EDF6ED8902434B4
:101E0000D96E2534DA6E010ED926000EDA22030EC1
:101E1000DE18DE10D8A408D0760E2424D96E000E69
:101E20002520DA6E330EDF6ED8902434D96E253437
:101E3000DA6E010ED926000EDA22040EDE18DE104C
:101E4000D8A408D0760E2424D96E000E2520DA6E90
:101E5000340EDF6ED8902434D96E2534DA6E010E3C
:101E6000D926000EDA22050EDE18DE10D8A408D01E
:101E7000760E2424D96E000E2520DA6E350EDF6E24
:101E8000D8902434D96E2534DA6E010ED926000E8E
:101E9000DA22060EDE18DE10D8A408D0760E24242E
:101EA000D96E000E2520DA6E360EDF6ED8902434FF
:101EB000D96E2534DA6E010ED926000EDA22070E0D
:101EC000DE18DE10D8A408D0760E2424D96E000EB9
:101ED0002520DA6E370EDF6ED8902434D96E253483
:101EE000DA6E010ED926000EDA22080EDE18DE1098
:101EF000D8A408D0760E2424D96E000E2520DA6EE0
:101F0000380EDF6ED8902434D96E2534DA6E010E87
:101F1000D926000EDA22090EDE18DE10D8A408D069
:101F2000760E2424D96E000E2520DA6E390EDF6E6F
:101F3000020E24182510D8B405D0030E241825103D
:101F4000D8A416D1D8902434D96E2534DA6E010E77
:101F5000D926000EDA22DE50DE10D8A40ED0010EF3
:101F60002424226E000E2520236E760E2224D96EA4
:101F7000000E2320DA6E300EDF6ED8902434D96E36
:101F80002534DA6E010ED926000EDA22DE04DE10C8
:101F9000D8A40ED0010E2424226E000E2520236E1C
:101FA000760E2224D96E000E2320DA6E310EDF6EFB
:101FB000D8902434D96E2534DA6E010ED926000E5D
:101FC000DA22020EDE18DE10D8A40ED0010E242470
:101FD000226E000E2520236E760E2224D96E000E6E
:101FE0002320DA6E320EDF6ED8902434D96E253479
:101FF000DA6E010ED926000EDA22030EDE18DE108C
:10200000D8A40ED0010E2424226E000E2520236EAB
:10201000760E2224D96E000E2320DA6E330EDF6E88
:10202000D8902434D96E2534DA6E010ED926000EEC
:10203000DA22040EDE18DE10D8A40ED0010E2424FD
:10204000226E000E2520236E760E2224D96E000EFD
:102050002320DA6E340EDF6ED8902434D96E253406
:10206000DA6E010ED926000EDA22050EDE18DE1019
:10207000D8A40ED0010E2424226E000E2520236E3B
:10208000760E2224D96E000E2320DA6E350EDF6E16
:10209000D8902434D96E2534DA6E010ED926000E7C
:1020A000DA22060EDE18DE10D8A40ED0010E24248B
:1020B000226E000E2520236E760E2224D96E000E8D
:1020C0002320DA6E360EDF6ED8902434D96E253494
:1020D000DA6E010ED926000EDA22070EDE18DE10A7
:1020E000D8A40ED0010E2424226E000E2520236ECB
:1020F000760E2224D96E000E2320DA6E370EDF6EA4
:10210000D8902434D96E2534DA6E010ED926000E0B
:10211000DA22080EDE18DE10D8A40ED0010E242418
:10212000226E000E2520236E760E2224D96E000E1C
:102130002320DA6E380EDF6ED8902434D96E253421
:10214000DA6E010ED926000EDA22090EDE18DE1034
:10215000D8A40ED0010E2424226E000E2520236E5A
:10216000760E2224D96E000E2320DA6E390EDF6E31
:10217000040E24182510D8B405D0050E24182510F7
:10218000D8A416D1D8902434D96E2534DA6E010E35
:10219000D926000EDA22DE50DE10D8A40ED0020EB0
:1021A0002424226E000E2520236E760E2224D96E62
:1021B000000E2320DA6E300EDF6ED8902434D96EF4
:1021C0002534DA6E010ED926000EDA22DE04DE1086
:1021D000D8A40ED0020E2424226E000E2520236ED9
:1021E000760E2224D96E000E2320DA6E310EDF6EB9
:1021F000D8902434D96E2534DA6E010ED926000E1B
:10220000DA22020EDE18DE10D8A40ED0020E24242C
:10221000226E000E2520236E760E2224D96E000E2B
:102220002320DA6E320EDF6ED8902434D96E253436
:10223000DA6E010ED926000EDA22030EDE18DE1049
:10224000D8A40ED0020E2424226E000E2520236E68
:10225000760E2224D96E000E2320DA6E330EDF6E46
:10226000D8902434D96E2534DA6E010ED926000EAA
:10227000DA22040EDE18DE10D8A40ED0020E2424BA
:10228000226E000E2520236E760E2224D96E000EBB
:102290002320DA6E340EDF6ED8902434D96E2534C4
:1022A000DA6E010ED926000EDA22050EDE18DE10D7
:1022B000D8A40ED0020E2424226E000E2520236EF8
:1022C000760E2224D96E000E2320DA6E350EDF6ED4
:1022D000D8902434D96E2534DA6E010ED926000E3A
:1022E000DA22060EDE18DE10D8A40ED0020E242448
:1022F000226E000E2520236E760E2224D96E000E4B
:102300002320DA6E360EDF6ED8902434D96E253451
:10231000DA6E010ED926000EDA22070EDE18DE1064
:10232000D8A40ED0020E2424226E000E2520236E87
:10233000760E2224D96E000E2320DA6E370EDF6E61
:10234000D8902434D96E2534DA6E010ED926000EC9
:10235000DA22080EDE18DE10D8A40ED0020E2424D5
:10236000226E000E2520236E760E2224D96E000EDA
:102370002320DA6E380EDF6ED8902434D96E2534DF
:10238000DA6E010ED926000EDA22090EDE18DE10F2
:10239000D8A40ED0020E2424226E000E2520236E17
:1023A000760E2224D96E000E2320DA6E390EDF6EEF
:1023B000244A252A25BEDAD4255001E1D1D41200C1
:1023C000000E00018C6F000E8D6F000E8E6F000EE0
:1023D000896F000E886F000E876F000E866F24D005
:1023E00087EC92F02E5000018E6F8E51336E346A5E
:1023F0003D50331804E13E503418D8B415D0600075
:1024000038F28DF060003CF088F0600040F089F018
:102410001150191807E112501A18D8A403D01DEC56
:102420009AF002D037EC9AF000018E51336E346A84
:102430003D50331857E13E503418D8A453D0D0D76C
:102440001A0E336EF80EE82EFED7332EFCD700D0CE
:102450000A0E00018627000E872387EC92F02E508B
:1024600000018E6F8E51336E346A3D50331808E18F
:102470003E503418D8A404D0000E896F000E886F27
:10248000E80E86192FE1030E8719D8A42BD060001F
:1024900038F28CF01150191815E112501A18D8A4FE
:1024A00011D014EC9AF0020E346E040E336EBA0E94
:1024B000E82EFED7332EFCD7342EFAD700D014ECFA
:1024C0009AF010D02FEC9AF0020E346E040E336E98
:1024D000BA0EE82EFED7332EFCD7342EFAD700D012
:1024E0002FEC9AF0000188510F1804E1895110185F
:1024F000D8B4A6D7600034F28AF0600030F28BF0D6
:10250000600028F231F060002CF232F012003F013E
:10251000BB81CBA906D0BB91000E2F6E310E2E6E63
:102520001200CBAB05D0BB91000E2F6E320EF7D749
:10253000CBAD05D0BB91000E2F6E330EF0D7CBAFD5
:1025400005D0BB91000E2F6E410EE9D7BB91030E53
:10255000306E980EE82EFED7302EFCD73F01BB839D
:10256000CBA906D0BB93000E2F6E340E2E6E120038
:10257000CBAB05D0BB93000E2F6E350EF7D7CBAD8E
:1025800005D0BB93000E2F6E360EF0D7CBAF05D023
:10259000BB93000E2F6E420EE9D7BB93030E306E35
:1025A000980EE82EFED7302EFCD73F01BB85CBA975
:1025B00006D0BB95000E2F6E370E2E6E1200CBABE1
:1025C00005D0BB95000E2F6E380EF7D7CBAD05D0DA
:1025D000BB95000E2F6E390EF0D7CBAF05D0BB9553
:1025E000000E2F6E430EE9D7BB95030E306E980E8A
:1025F000E82EFED7302EFCD73F01BB87CBA906D0F3
:10260000BB97000E2F6E2A0E2E6E1200CBAB05D09C
:10261000BB97000E2F6E300EF7D7CBAD05D0BB9712
:10262000000E2F6E230EF0D7CBAF05D0BB97000E58
:102630002F6E440EE9D7BB97030E306E980EE82E2E
:10264000FED7302EFCD7000E2F6E000E2E6E12001D
:10265000000E336E000E326E33BE08D0335005E1EB
:10266000060E325CD8B0120001D01200D89032347D
:10267000D96E3334DA6E600ED926000EDA22D89085
:102680003234E16E3334E26E010EE126000EE222B6
:102690006F007BFFE6FF6F0077FFE5FF33BE06D0DC
:1026A000335013E1020E325CD8B00FD06C0E3224DE
:1026B000D96E000E3320DA6E760E3224E16E000EF3
:1026C0003320E26E6F007FFFE7FF33BE29D0335027
:1026D00004E1020E325CD8A023D033BE06D03350C2
:1026E0001FE1040E325CD8B01BD0010E32242E6ED6
:1026F000000E33202F6E6C0E2E24D96E000E2F206C
:10270000DA6E010E3224306E000E3320316E760EFA
:102710003024E16E000E3120E26E6F007FFFE7FF94
:1027200033BE29D0335004E1040E325CD8A023D04C
:1027300033BE06D033501FE1060E325CD8B01BD03A
:10274000020E32242E6E000E33202F6E6C0E2E24BD
:10275000D96E000E2F20DA6E020E3224306E000E7B
:102760003320316E760E3024E16E000E3120E26EA1
:102770006F007FFFE7FF324A332A33BE77D73350EB
:1027800001E16ED712000B500C10D8B404D00B0628
:10279000D8A00C0686D009500A10D8B408D0000E74
:1027A0000C6E090E0B6E0906D8A00A067AD00750E7
:1027B0000810D8B418D01150171809E11250181881
:1027C000D8A405D026EC9AF0540E51EC9AF00706E6
:1027D000D8A00806000E0C6E090E0B6E000E0A6ED5
:1027E000090E096E5ED01150171809E11250181821
:1027F000D8A405D026EC9AF0540E51EC9AF005506E
:102800000610D8B410D00506D8A00606000E0C6E2F
:10281000090E0B6E000E0A6E090E096E000E086E90
:10282000090E076E3ED003500410D8B414D003062E
:10283000D8A00406000E0C6E090E0B6E000E0A6E78
:10284000090E096E000E086E090E076E000E066E68
:10285000050E056E26D001500210D8B418D001061E
:10286000D8A00206000E0C6E090E0B6E000E0A6E4A
:10287000090E096E000E086E090E076E000E066E38
:10288000050E056E000E046E090E036E0AD069EC8B
:102890009AF060006CF045F0600070F046F070EC6B
:1028A00095F0A8EC8EF074EC97F012006F00D8FF52
:1028B0002AF06F00DCFF2BF06F00E0FF2CF06F00C0
:1028C000D4FF2DF03901A4A109D03F016E9FBA9128
:1028D000B2913901A491720E3F01AB6F3901A3AFE0
:1028E0003AD0A39F3F01B89FC3EC93F01F50451807
:1028F0000BE120504618D8A407D0630E3F01B76FF4
:10290000BF0EB66FB88F27D01B50451824E11C505E
:102910004618D8A420D0000E246E010E236E000E9F
:10292000266E010E256EF8EC98F0F70E236EFF0E62
:10293000246E01EC97F0000E246E020E236E000E42
:10294000266E010E256EF8EC98F0AE0E236EFF0E8B
:10295000246E01EC97F06000B7F0F5FF6000B3F073
:10296000F8FF6000AFF0F7FF6000ABF0F6FF11007A
:102970005AEC9AF0000E306E020E2F6E000E326E80
:10298000010E316EE1EC98F08C0E2F6EFF0E306E62
:10299000D8EC96F0000E386E000E376E38BE06D0BA
:1029A000385041E1060E375CD8B01200000E306E90
:1029B000020E2F6E000E326E050E316EE1EC98F0B5
:1029C000DE0E2F6EFF0E306ED8EC96F0FFEC99F015
:1029D000020E366E860E356E990EE82EFED7352E17
:1029E000FCD7362EFAD700F0000E306E020E2F6E96
:1029F000000E326E050E316EE1EC98F0940E2F6EE3
:102A0000FF0E306ED8EC96F0020E366E860E356EE6
:102A1000990EE82EFED7352EFCD7362EFAD700F0C9
:102A2000374A382ABBD712005AEC9AF0000E306EA3
:102A3000020E2F6E000E326E010E316EE1EC98F038
:102A40008C0E2F6EFF0E306ED8EC96F0000E386EA6
:102A5000000E376E38BE06D0385041E1060E375CA6
:102A6000D8B01200000E306E020E2F6E000E326EC5
:102A7000050E316EE1EC98F0E70E2F6EFF0E306E12
:102A8000D8EC96F0FFEC99F0020E366E860E356E9D
:102A9000990EE82EFED7352EFCD7362EFAD700F049
:102AA000000E306E020E2F6E000E326E050E316E6D
:102AB000E1EC98F0940E2F6EFF0E306ED8EC96F08D
:102AC000020E366E860E356E990EE82EFED7352E26
:102AD000FCD7362EFAD700F0374A382ABBD7120077
:102AE0003F016E8FB40EAB6F000E246E000E236E8E
:102AF00024BE06D0245012E1200E235CD8B00ED0A4
:102B00003F01AB05AB6F540E226E1C0EE82EFED7B4
:102B1000222EFCD700D0234A242AEAD7F40E3F0104
:102B2000AB6F000E266E000E256E26BE03D026501B
:102B30001EE119D03F016E9F880E226E0F0EE82E07
:102B4000FED7222EFCD700F03F016E8F4C0E226E76
:102B5000520EE82EFED7222EFCD7254A262A26BE64
:102B6000E9D7265004E10C0E255CD8A0E3D73F013D
:102B70006E9F720EAB6F120011500001741912E1BA
:102B800012507519D8A40ED01F50451804E12050DA
:102B90004618D8B407D0600044F019F0600048F03F
:102BA0001AF006D0600004F119F0600008F11AF084
:102BB000115015180BE112501618D8A407D0600058
:102BC00044F017F0600048F018F006D0600004F1FF
:102BD00017F0600008F118F0115013180EE11250B0
:102BE0001418D8A40AD01F50451804E120504618E4
:102BF000D8B403D056EC9AF012005AEC9AF01200B6
:102C0000000E3F01C56F000EC46FBC9D680E2F6E95
:102C1000E40EE82EFED72F2EFCD700D0300EBDECF0
:102C200099F0340E2F6EF20EE82EFED72F2EFCD721
:102C3000300EBDEC99F0060E2F6E300EE82EFED74A
:102C40002F2EFCD700D0300EBDEC99F0680E2F6E01
:102C5000E40EE82EFED72F2EFCD700D0380EBDECA8
:102C600099F0080EBDEC99F0010EBDEC99F0060E3E
:102C7000BDEC99F00E0EBDEC99F0020EBDEC99F092
:102C80008EEC99F012004A0EF66E320EF76E010EBF
:102C9000F86E00EE60F010EE26F009006F00D7FF2E
:102CA000EEFFE550E150F9E1FA0EF66E320EF76EE6
:102CB000010EF86E00EE01F010EE21F009006F0039
:102CC000D7FFEEFFE550E150F9E100EE99F0080E74
:102CD000EE6AE806FDE100EE3BF0180EEE6AE8064B
:102CE000FDE1080ED56E000ED66E000ED76E000EFA
:102CF000F86E000100EF80F06000D0F02EF0600070
:102D0000D4F02FF0BCEC97F06000B8F037F0600022
:102D1000BCF038F0000E3A6E000E396E12D0395009
:102D20003424D96E3A503520DA6EDF504CEC9AF0EC
:102D3000820E366EDE0EE82EFED7362EFCD7394ACE
:102D40003A2A3950375C3850800A366E3A50800A39
:102D50003658D8B0E4D7000E3D01EA6F120004D017
:102D60002E4A2F2A304A312A6000BBF0D9FF60007A
:102D7000BFF0DAFFDF50326E6000C3F0D9FF6000B1
:102D8000C7F0DAFFDF5000083224336E3350D8A486
:102D900009D06000BBF0D9FF6000BFF0DAFFDF5060
:102DA000D8A4DED733502E6E2F6A2EBE2F06120007
:102DB000000E346E000E336E12D033502F24316E5D
:102DC00034503020326E6000C7F0F6FF6000CBF068
:102DD000F7FF0800F5505BEC99F0334A342A335082
:102DE0002F24316E34503020326E6000C7F0F6FF71
:102DF0006000CBF0F7FF0800F5500009D8B41200CE
:102E0000DCD7000E286E000E276E12D02750232428
:102E1000256E28502420266E600097F0F6FF600093
:102E20009BF0F7FF0800F5506CEC99F0274A282A30
:102E300027502324256E28502420266E600097F00A
:102E4000F6FF60009BF0F7FF0800F5500009D8B4CA
:102E50001200DCD7000E356E000E346E35BE06D083
:102E600035501CE1080E345CD8B01200000E306EF4
:102E7000010E2F6E090E3424316E000E3520326E95
:102E8000E1EC98F0760E3424D96E000E3520DA6E1F
:102E9000DF505BEC99F0344A352AE0D71200000E7F
:102EA000356E000E346E35BE06D035501CE1080E6E
:102EB000345CD8B01200000E306E010E2F6E090E79
:102EC0003424316E000E3520326EE1EC98F06C0E39
:102ED0003424D96E000E3520DA6EDF505BEC99F0A9
:102EE000344A352AE0D71200000E296E000E286EF3
:102EF00029BE06D029501CE1080E285CD8B012006B
:102F0000000E246E010E236E090E2824256E000E7D
:102F10002920266EF8EC98F0760E2824D96E000E43
:102F20002920DA6EDF506CEC99F0284A292AE0D784
:102F300012003F01C291C2930D0E3A01016F3F0191
:102F40005F51FC0B01095F6F390E6D6F100E6C6FD6
:102F50006E9FAE51F00B0109AE6F720EAB6FAC51AC
:102F60008F0B2009AC6FAC8F300EB26F010EB56FB6
:102F700039019481A49112006000B8F032F0600031
:102F8000BCF033F002D0324A332A6000CBF0D9FFD4
:102F90006000CFF0DAFFDF50D8A4F5D76000B8F0BA
:102FA00030F06000BCF031F0301E311E304A312A62
:102FB000325030242E6E335031202F6E1200000E0E
:102FC0004E6E000E4D6E990E346E000E356E21EC75
:102FD00098F08EEC99F0000E306E010E2F6E000E00
:102FE000326E010E316EE1EC98F0D50E2F6EFF0EB1
:102FF000306ED8EC96F02AEC97F095EC98F0120031
:10300000000E4E6E000E4D6E990E346E000E356E33
:1030100021EC98F08EEC99F0000E306E010E2F6EC0
:10302000000E326E010E316EE1EC98F0CC0E2F6E78
:10303000FF0E306ED8EC96F02AEC97F095EC98F0F5
:103040001200000E376E000E366E0AD03650342451
:10305000D96E37503520DA6E000EDF6E364A372AC9
:103060006000D0F02EF06000D4F02FF0BCEC97F0B0
:1030700036502E5C37502F58D8A01200E7D70AECF4
:103080009AF0020E2F6E1E0E2E6EB40EE82EFED794
:103090002E2EFCD72F2EFAD70AEC9AF0020E2F6EA6
:1030A0001E0E2E6EB40EE82EFED72E2EFCD72F2E1F
:1030B000FAD70AEC9AF01200000E306E010E2F6E55
:1030C000000E326E010E316EE1EC98F0F00E2F6EB4
:1030D000FF0E306ED8EC96F0000E4E6E000E4D6E68
:1030E000990E346E000E356E21EC98F095EC98F048
:1030F00012006000D0F02EF06000D4F02FF06000DD
:10310000D8F030F06000DCF031F0AFEC96F02E50EB
:103110002F10D8A405D0000E356E010E346E1200AB
:10312000000E356E000E346E1200000E306E020E70
:103130002F6E000E326E010E316EE1EC98F09D0E96
:103140002F6EFF0E306ED8EC96F0000E306E020E31
:103150002F6E000E326E0A0E316EE1EC98F0120006
:10316000000E3F01BE6F000EBD6F000EBA6F000E65
:10317000BB6F000EBC6F000E3A01706F000E716FD6
:10318000000E416F000E426F000E726F3901908F7A
:103190001200000E2F6E000E2E6E2FBE06D02F5086
:1031A0000FE1070E2E5CD8B01200990E2E24D96EB6
:1031B000000E2F20DA6E000EDF6E2E4A2F2AEDD77A
:1031C00012002F043010D8A407D031507F0F336E77
:1031D0003350BDEC99F01200020E2F183010D8A415
:1031E00012003150BF0F336E3350BDEC99F0120016
:1031F00023042410D8A407D025507F0F276E275012
:10320000CBEC99F01200020E23182410D8A412005F
:103210002550BF0F276E2750CBEC99F012003D01CF
:10322000F29FF29DF28BF291F293F295F297F38F67
:10323000000EF66F030EF56F100E3A01E56F130ED8
:10324000116F3F01C493C48112000000010000000F
:1032500000000000000030313A30303A30300100D8
:1032600030313A30303A3030313131313131310072
:10327000000E3901C06F000EC16F000EC26F000E4C
:10328000C36F000EC46F000EC56F000EC66F000E38
:10329000C76F12003901938F838FA39F3F01B89F9F
:1032A000B889B9511F0B6009B96FB989B951F00BD1
:1032B0000109B96F12002E6E3F01BC8D000EBD6F6B
:1032C0002E50BD13BC8F1A0EE82EFED700D03F0142
:1032D000BC9F000EBD6F1200226E3F01BC8D000E20
:1032E000BD6F2250BD13BC8F1A0EE82EFED700D042
:1032F0003F01BC9F000EBD6F1200000001000000E6
:1033000000000000000001000100010001000100B8
:0B3310000100010003000200010001A9
:10331C003F01BC9D010EBD17BC8F0B0E2E6E620EB5
:10332C00E82EFED72E2EFCD700D03F01BC9F1200FA
:10333C000AEC9AF0020E2F6E1E0E2E6EB40EE82EB4
:10334C00FED72E2EFCD72F2EFAD70AEC9AF01200AD
:10335C003F01C391C393C395C397C389C38BC38DDB
:10336C00C38F3A015099509B509D509F12002E6E66
:10337C003F01BC9D6000BBF0BDFFBC8F210EE82E51
:10338C00FED700F03F01BC9F1200226E3F01BC9D96
:10339C0060008BF0BDFFBC8F210EE82EFED700F035
:1033AC003F01BC9F12000FEC99F0E6EC99F099EC00
:1033BC0097F0AEEC99F04AEC99F000EC96F0120014
:1033CC006CEC9AF046EC9AF038EC99F0B0EC98F082
:1033DC00F3EC99F06DEC9AF01200600E3901D96F94
:1033EC00000EDB6F000EDD6F030EDF6F000EDE6F65
:1033FC001200F20E3F01AB6F540EB16F1F0EB06F87
:10340C006E8FBA81B28112003F01AB69CE0EB16FE3
:10341C00570EB06F6E8FBA81B2811200CE0E3F0183
:10342C00B16F570EB06F6E8FBA81B2811200AE0EB3
:10343C003F01B16F570EB06F6E8FBA81B28112001F
:10344C00AE0E3F01B16F570EB06F6E8FBA81B28165
:10345C001200CE0E3F01B16F570EB06FBA81B28120
:10346C001200AE0E3F01B16F570EB06FBA81B28130
:10347C001200630E3F01B76FBF0EB66FB88F12000C
:10348C003F01D28FD28DD28FD28B12002E6E600064
:10349C00BBF0EAFD1200226E60008BF0EAFD120018
:1034AC000F0EBDEC99F012000C0EBDEC99F0120051
:1034BC00140EBDEC99F01200100EBDEC99F0120038
:1034CC003F01B89F12003F01B89F1200120012007A
:020000040020DA
:10000000FF0FFF0FFF0FFF0FFF0FFF0FFF0FFF0F80
:020000040030CA
:0A000000ECFFF7FF9FFFFFFFFFFF7B
:00000001FF
